{
  "contractName": "SupplyChain",
  "abi": [
    {
      "anonymous": false,
      "inputs": [
        {
          "indexed": false,
          "internalType": "uint256",
          "name": "orderNumber",
          "type": "uint256"
        }
      ],
      "name": "OrderCreated",
      "type": "event"
    },
    {
      "inputs": [
        {
          "internalType": "uint256",
          "name": "",
          "type": "uint256"
        }
      ],
      "name": "orders",
      "outputs": [
        {
          "internalType": "uint256",
          "name": "orderNumber",
          "type": "uint256"
        },
        {
          "internalType": "string",
          "name": "name",
          "type": "string"
        },
        {
          "internalType": "string",
          "name": "email",
          "type": "string"
        },
        {
          "internalType": "string",
          "name": "phoneNumber",
          "type": "string"
        },
        {
          "internalType": "string",
          "name": "fromAddress",
          "type": "string"
        },
        {
          "internalType": "string",
          "name": "toAddress",
          "type": "string"
        },
        {
          "internalType": "bool",
          "name": "isShipped",
          "type": "bool"
        }
      ],
      "stateMutability": "view",
      "type": "function"
    },
    {
      "inputs": [
        {
          "internalType": "string",
          "name": "_name",
          "type": "string"
        },
        {
          "internalType": "string",
          "name": "_email",
          "type": "string"
        },
        {
          "internalType": "string",
          "name": "_phoneNumber",
          "type": "string"
        },
        {
          "internalType": "string",
          "name": "_fromAddress",
          "type": "string"
        },
        {
          "internalType": "string",
          "name": "_toAddress",
          "type": "string"
        }
      ],
      "name": "createOrder",
      "outputs": [
        {
          "internalType": "uint256",
          "name": "",
          "type": "uint256"
        }
      ],
      "stateMutability": "nonpayable",
      "type": "function"
    },
    {
      "inputs": [
        {
          "internalType": "uint256",
          "name": "_orderNumber",
          "type": "uint256"
        }
      ],
      "name": "getOrder",
      "outputs": [
        {
          "components": [
            {
              "internalType": "uint256",
              "name": "orderNumber",
              "type": "uint256"
            },
            {
              "internalType": "string",
              "name": "name",
              "type": "string"
            },
            {
              "internalType": "string",
              "name": "email",
              "type": "string"
            },
            {
              "internalType": "string",
              "name": "phoneNumber",
              "type": "string"
            },
            {
              "internalType": "string",
              "name": "fromAddress",
              "type": "string"
            },
            {
              "internalType": "string",
              "name": "toAddress",
              "type": "string"
            },
            {
              "internalType": "bool",
              "name": "isShipped",
              "type": "bool"
            }
          ],
          "internalType": "struct SupplyChain.Order",
          "name": "",
          "type": "tuple"
        }
      ],
      "stateMutability": "view",
      "type": "function"
    },
    {
      "inputs": [
        {
          "internalType": "uint256",
          "name": "_orderNumber",
          "type": "uint256"
        }
      ],
      "name": "markAsShipped",
      "outputs": [],
      "stateMutability": "nonpayable",
      "type": "function"
    }
  ],
  "bytecode": "0x60806040525f8055348015610012575f80fd5b50611267806100205f395ff3fe608060405234801561000f575f80fd5b506004361061004a575f3560e01c806375cfa1981461004e578063a85c38ef1461007e578063bd99840e146100b4578063d09ef241146100d0575b5f80fd5b61006860048036038101906100639190610aa4565b610100565b6040516100759190610bbf565b60405180910390f35b61009860048036038101906100939190610c02565b61023c565b6040516100ab9796959493929190610cc1565b60405180910390f35b6100ce60048036038101906100c99190610c02565b610524565b005b6100ea60048036038101906100e59190610c02565b6105a7565b6040516100f79190610e6c565b60405180910390f35b5f805f81548092919061011290610eb9565b91905055506040518060e001604052805f5481526020018781526020018681526020018581526020018481526020018381526020015f151581525060015f805481526020019081526020015f205f820151815f0155602082015181600101908161017c91906110fa565b50604082015181600201908161019291906110fa565b5060608201518160030190816101a891906110fa565b5060808201518160040190816101be91906110fa565b5060a08201518160050190816101d491906110fa565b5060c0820151816006015f6101000a81548160ff0219169083151502179055509050507f7e82078c35b6665b9d320ebeaa6c266960fad5b802c5558cf7df60c4769af95b5f546040516102279190610bbf565b60405180910390a15f54905095945050505050565b6001602052805f5260405f205f91509050805f01549080600101805461026190610f2d565b80601f016020809104026020016040519081016040528092919081815260200182805461028d90610f2d565b80156102d85780601f106102af576101008083540402835291602001916102d8565b820191905f5260205f20905b8154815290600101906020018083116102bb57829003601f168201915b5050505050908060020180546102ed90610f2d565b80601f016020809104026020016040519081016040528092919081815260200182805461031990610f2d565b80156103645780601f1061033b57610100808354040283529160200191610364565b820191905f5260205f20905b81548152906001019060200180831161034757829003601f168201915b50505050509080600301805461037990610f2d565b80601f01602080910402602001604051908101604052809291908181526020018280546103a590610f2d565b80156103f05780601f106103c7576101008083540402835291602001916103f0565b820191905f5260205f20905b8154815290600101906020018083116103d357829003601f168201915b50505050509080600401805461040590610f2d565b80601f016020809104026020016040519081016040528092919081815260200182805461043190610f2d565b801561047c5780601f106104535761010080835404028352916020019161047c565b820191905f5260205f20905b81548152906001019060200180831161045f57829003601f168201915b50505050509080600501805461049190610f2d565b80601f01602080910402602001604051908101604052809291908181526020018280546104bd90610f2d565b80156105085780601f106104df57610100808354040283529160200191610508565b820191905f5260205f20905b8154815290600101906020018083116104eb57829003601f168201915b505050505090806006015f9054906101000a900460ff16905087565b5f60015f8381526020019081526020015f205f015403610579576040517f08c379a000000000000000000000000000000000000000000000000000000000815260040161057090611213565b60405180910390fd5b6001805f8381526020019081526020015f206006015f6101000a81548160ff02191690831515021790555050565b6105af61091a565b5f60015f8481526020019081526020015f205f015403610604576040517f08c379a00000000000000000000000000000000000000000000000000000000081526004016105fb90611213565b60405180910390fd5b60015f8381526020019081526020015f206040518060e00160405290815f820154815260200160018201805461063990610f2d565b80601f016020809104026020016040519081016040528092919081815260200182805461066590610f2d565b80156106b05780601f10610687576101008083540402835291602001916106b0565b820191905f5260205f20905b81548152906001019060200180831161069357829003601f168201915b505050505081526020016002820180546106c990610f2d565b80601f01602080910402602001604051908101604052809291908181526020018280546106f590610f2d565b80156107405780601f1061071757610100808354040283529160200191610740565b820191905f5260205f20905b81548152906001019060200180831161072357829003601f168201915b5050505050815260200160038201805461075990610f2d565b80601f016020809104026020016040519081016040528092919081815260200182805461078590610f2d565b80156107d05780601f106107a7576101008083540402835291602001916107d0565b820191905f5260205f20905b8154815290600101906020018083116107b357829003601f168201915b505050505081526020016004820180546107e990610f2d565b80601f016020809104026020016040519081016040528092919081815260200182805461081590610f2d565b80156108605780601f1061083757610100808354040283529160200191610860565b820191905f5260205f20905b81548152906001019060200180831161084357829003601f168201915b5050505050815260200160058201805461087990610f2d565b80601f01602080910402602001604051908101604052809291908181526020018280546108a590610f2d565b80156108f05780601f106108c7576101008083540402835291602001916108f0565b820191905f5260205f20905b8154815290600101906020018083116108d357829003601f168201915b50505050508152602001600682015f9054906101000a900460ff1615151515815250509050919050565b6040518060e001604052805f815260200160608152602001606081526020016060815260200160608152602001606081526020015f151581525090565b5f604051905090565b5f80fd5b5f80fd5b5f80fd5b5f80fd5b5f601f19601f8301169050919050565b7f4e487b71000000000000000000000000000000000000000000000000000000005f52604160045260245ffd5b6109b682610970565b810181811067ffffffffffffffff821117156109d5576109d4610980565b5b80604052505050565b5f6109e7610957565b90506109f382826109ad565b919050565b5f67ffffffffffffffff821115610a1257610a11610980565b5b610a1b82610970565b9050602081019050919050565b828183375f83830152505050565b5f610a48610a43846109f8565b6109de565b905082815260208101848484011115610a6457610a6361096c565b5b610a6f848285610a28565b509392505050565b5f82601f830112610a8b57610a8a610968565b5b8135610a9b848260208601610a36565b91505092915050565b5f805f805f60a08688031215610abd57610abc610960565b5b5f86013567ffffffffffffffff811115610ada57610ad9610964565b5b610ae688828901610a77565b955050602086013567ffffffffffffffff811115610b0757610b06610964565b5b610b1388828901610a77565b945050604086013567ffffffffffffffff811115610b3457610b33610964565b5b610b4088828901610a77565b935050606086013567ffffffffffffffff811115610b6157610b60610964565b5b610b6d88828901610a77565b925050608086013567ffffffffffffffff811115610b8e57610b8d610964565b5b610b9a88828901610a77565b9150509295509295909350565b5f819050919050565b610bb981610ba7565b82525050565b5f602082019050610bd25f830184610bb0565b92915050565b610be181610ba7565b8114610beb575f80fd5b50565b5f81359050610bfc81610bd8565b92915050565b5f60208284031215610c1757610c16610960565b5b5f610c2484828501610bee565b91505092915050565b5f81519050919050565b5f82825260208201905092915050565b5f5b83811015610c64578082015181840152602081019050610c49565b5f8484015250505050565b5f610c7982610c2d565b610c838185610c37565b9350610c93818560208601610c47565b610c9c81610970565b840191505092915050565b5f8115159050919050565b610cbb81610ca7565b82525050565b5f60e082019050610cd45f83018a610bb0565b8181036020830152610ce68189610c6f565b90508181036040830152610cfa8188610c6f565b90508181036060830152610d0e8187610c6f565b90508181036080830152610d228186610c6f565b905081810360a0830152610d368185610c6f565b9050610d4560c0830184610cb2565b98975050505050505050565b610d5a81610ba7565b82525050565b5f82825260208201905092915050565b5f610d7a82610c2d565b610d848185610d60565b9350610d94818560208601610c47565b610d9d81610970565b840191505092915050565b610db181610ca7565b82525050565b5f60e083015f830151610dcc5f860182610d51565b5060208301518482036020860152610de48282610d70565b91505060408301518482036040860152610dfe8282610d70565b91505060608301518482036060860152610e188282610d70565b91505060808301518482036080860152610e328282610d70565b91505060a083015184820360a0860152610e4c8282610d70565b91505060c0830151610e6160c0860182610da8565b508091505092915050565b5f6020820190508181035f830152610e848184610db7565b905092915050565b7f4e487b71000000000000000000000000000000000000000000000000000000005f52601160045260245ffd5b5f610ec382610ba7565b91507fffffffffffffffffffffffffffffffffffffffffffffffffffffffffffffffff8203610ef557610ef4610e8c565b5b600182019050919050565b7f4e487b71000000000000000000000000000000000000000000000000000000005f52602260045260245ffd5b5f6002820490506001821680610f4457607f821691505b602082108103610f5757610f56610f00565b5b50919050565b5f819050815f5260205f209050919050565b5f6020601f8301049050919050565b5f82821b905092915050565b5f60088302610fb97fffffffffffffffffffffffffffffffffffffffffffffffffffffffffffffffff82610f7e565b610fc38683610f7e565b95508019841693508086168417925050509392505050565b5f819050919050565b5f610ffe610ff9610ff484610ba7565b610fdb565b610ba7565b9050919050565b5f819050919050565b61101783610fe4565b61102b61102382611005565b848454610f8a565b825550505050565b5f90565b61103f611033565b61104a81848461100e565b505050565b5b8181101561106d576110625f82611037565b600181019050611050565b5050565b601f8211156110b25761108381610f5d565b61108c84610f6f565b8101602085101561109b578190505b6110af6110a785610f6f565b83018261104f565b50505b505050565b5f82821c905092915050565b5f6110d25f19846008026110b7565b1980831691505092915050565b5f6110ea83836110c3565b9150826002028217905092915050565b61110382610c2d565b67ffffffffffffffff81111561111c5761111b610980565b5b6111268254610f2d565b611131828285611071565b5f60209050601f831160018114611162575f8415611150578287015190505b61115a85826110df565b8655506111c1565b601f19841661117086610f5d565b5f5b8281101561119757848901518255600182019150602085019450602081019050611172565b868310156111b457848901516111b0601f8916826110c3565b8355505b6001600288020188555050505b505050505050565b7f4f7264657220646f6573206e6f742065786973742e00000000000000000000005f82015250565b5f6111fd601583610c37565b9150611208826111c9565b602082019050919050565b5f6020820190508181035f83015261122a816111f1565b905091905056fea26469706673582212209578dc96b417d5980283f537b96ec92933b61f05557319acc895e63a181cf39d64736f6c63430008150033",
  "immutableReferences": {},
  "source": "// SPDX-License-Identifier: MIT\npragma solidity ^0.8.0;\n\ncontract SupplyChain {\n    // Define an Order struct with relevant fields\n    struct Order {\n        uint256 orderNumber;\n        string name;\n        string email;\n        string phoneNumber;\n        string fromAddress;\n        string toAddress;\n        bool isShipped;\n    }\n\n    // State variable to keep track of the last order number\n    uint256 private lastOrderNumber = 0;\n\n    // Mapping from order number to Order struct\n    mapping(uint256 => Order) public orders;\n\n    // Event to emit when a new order is created\n    event OrderCreated(uint256 orderNumber);\n\n    // Function to create a new order\n    function createOrder(\n        string memory _name,\n        string memory _email,\n        string memory _phoneNumber,\n        string memory _fromAddress,\n        string memory _toAddress\n    ) public returns (uint256) {\n        lastOrderNumber++; // Increment the last order number to create a unique order number\n\n        // Create a new Order struct and add it to the mapping\n        orders[lastOrderNumber] = Order({\n            orderNumber: lastOrderNumber,\n            name: _name,\n            email: _email,\n            phoneNumber: _phoneNumber,\n            fromAddress: _fromAddress,\n            toAddress: _toAddress,\n            isShipped: false // Default value at creation\n        });\n\n        // Emit the OrderCreated event\n        emit OrderCreated(lastOrderNumber);\n\n        // Return the new order number\n        return lastOrderNumber;\n    }\n\n    // Function to retrieve order details by order number\n    function getOrder(uint256 _orderNumber) public view returns (Order memory) {\n        require(orders[_orderNumber].orderNumber != 0, \"Order does not exist.\");\n        return orders[_orderNumber];\n    }\n\n    // Function to mark an order as shipped\n    function markAsShipped(uint256 _orderNumber) public {\n        require(orders[_orderNumber].orderNumber != 0, \"Order does not exist.\");\n        orders[_orderNumber].isShipped = true;\n    }\n}\n\n",
  "sourcePath": "/Users/pranay/SupplyChainProject/contracts/SupplyChain.sol",
  "compiler": {
    "name": "solc",
    "version": "0.8.21+commit.d9974bed.Emscripten.clang"
  },
  "schemaVersion": "3.4.16",
  "updatedAt": "2023-11-10T03:53:11.255Z",
  "devdoc": {
    "kind": "dev",
    "methods": {},
    "version": 1
  },
  "userdoc": {
    "kind": "user",
    "methods": {},
    "version": 1
  }
}